{
    "contractName": "WorkHistoryContract",
    "abi": [
        {
            "inputs": [],
            "stateMutability": "nonpayable",
            "type": "constructor"
        },
        {
            "anonymous": false,
            "inputs": [
                {
                    "indexed": true,
                    "internalType": "address",
                    "name": "admin",
                    "type": "address"
                },
                {
                    "indexed": false,
                    "internalType": "bool",
                    "name": "status",
                    "type": "bool"
                }
            ],
            "name": "AdminUpdated",
            "type": "event"
        },
        {
            "anonymous": false,
            "inputs": [
                {
                    "indexed": true,
                    "internalType": "address",
                    "name": "user",
                    "type": "address"
                },
                {
                    "indexed": false,
                    "internalType": "string",
                    "name": "jobTitle",
                    "type": "string"
                },
                {
                    "indexed": false,
                    "internalType": "string",
                    "name": "company",
                    "type": "string"
                },
                {
                    "indexed": false,
                    "internalType": "string",
                    "name": "workYears",
                    "type": "string"
                }
            ],
            "name": "WorkHistoryAdded",
            "type": "event"
        },
        {
            "anonymous": false,
            "inputs": [
                {
                    "indexed": true,
                    "internalType": "address",
                    "name": "user",
                    "type": "address"
                }
            ],
            "name": "WorkHistoryDeleted",
            "type": "event"
        },
        {
            "inputs": [
                {
                    "internalType": "string",
                    "name": "_jobTitle",
                    "type": "string"
                },
                {
                    "internalType": "string",
                    "name": "_company",
                    "type": "string"
                },
                {
                    "internalType": "string",
                    "name": "_workYears",
                    "type": "string"
                }
            ],
            "name": "addWorkHistory",
            "outputs": [],
            "stateMutability": "nonpayable",
            "type": "function"
        },
        {
            "inputs": [],
            "name": "deleteMyWorkHistory",
            "outputs": [],
            "stateMutability": "nonpayable",
            "type": "function"
        },
        {
            "inputs": [
                {
                    "internalType": "address",
                    "name": "_user",
                    "type": "address"
                }
            ],
            "name": "deleteUserWorkHistory",
            "outputs": [],
            "stateMutability": "nonpayable",
            "type": "function"
        },
        {
            "inputs": [
                {
                    "internalType": "address",
                    "name": "_user",
                    "type": "address"
                }
            ],
            "name": "getWorkHistory",
            "outputs": [
                {
                    "components": [
                        {
                            "internalType": "string",
                            "name": "jobTitle",
                            "type": "string"
                        },
                        {
                            "internalType": "string",
                            "name": "company",
                            "type": "string"
                        },
                        {
                            "internalType": "string",
                            "name": "workYears",
                            "type": "string"
                        }
                    ],
                    "internalType": "struct WorkHistoryContract.WorkEntry[]",
                    "name": "",
                    "type": "tuple[]"
                }
            ],
            "stateMutability": "view",
            "type": "function"
        },
        {
            "inputs": [
                {
                    "internalType": "address",
                    "name": "",
                    "type": "address"
                }
            ],
            "name": "isAdmin",
            "outputs": [
                {
                    "internalType": "bool",
                    "name": "",
                    "type": "bool"
                }
            ],
            "stateMutability": "view",
            "type": "function"
        },
        {
            "inputs": [],
            "name": "owner",
            "outputs": [
                {
                    "internalType": "address",
                    "name": "",
                    "type": "address"
                }
            ],
            "stateMutability": "view",
            "type": "function"
        },
        {
            "inputs": [
                {
                    "internalType": "address",
                    "name": "_admin",
                    "type": "address"
                },
                {
                    "internalType": "bool",
                    "name": "_status",
                    "type": "bool"
                }
            ],
            "name": "setAdmin",
            "outputs": [],
            "stateMutability": "nonpayable",
            "type": "function"
        }
    ],
    "bytecode": "60808060405234603e575f80546001600160a01b0319163390811782558152600260205260409020805460ff19166001179055610bc190816100438239f35b5f80fdfe6080806040526004361015610012575f80fd5b5f3560e01c90816324d7806c146108d8575080634b0bddd2146107ff5780635a5d4465146107b457806375913ebe146105eb5780638da5cb5b146105c4578063b97dfe99146104d85763c430c2a614610069575f80fd5b346104d45760603660031901126104d45760043567ffffffffffffffff81116104d45761009a903690600401610989565b60243567ffffffffffffffff81116104d4576100ba903690600401610989565b9060443567ffffffffffffffff81116104d4576100db903690600401610989565b91335f52600160205260405f206040516100f48161094b565b8381526020810183815260408201928684528054906801000000000000000082101561038257600182018082558210156104c0575f52600360205f20910201915180519067ffffffffffffffff82116103825761015184546109df565b601f8111610490575b50602090601f831160011461042d5761018a92915f91836102ac575b50508160011b915f199060031b1c19161790565b82555b518051600183019167ffffffffffffffff8211610382576101ae83546109df565b601f81116103fd575b50602090601f83116001146103965791806101eb9260029695945f926102ac5750508160011b915f199060031b1c19161790565b90555b01905180519067ffffffffffffffff82116103825761020d83546109df565b601f8111610347575b50602090601f83116001146102b757937f71abde17fe364f6113d02d8dc1afa961eb9c25e69215487ac6b264e4cc01f8f19593610273846102a7956102989561028a995f926102ac5750508160011b915f199060031b1c19161790565b90555b604051948594606086526060860190610927565b908482036020860152610927565b82810360408401523395610927565b0390a2005b015190505f80610176565b90601f19831691845f52815f20925f5b81811061032f5750846102989461028a98947f71abde17fe364f6113d02d8dc1afa961eb9c25e69215487ac6b264e4cc01f8f19a98946102a79860019510610317575b505050811b019055610276565b01515f1960f88460031b161c191690555f808061030a565b929360206001819287860151815501950193016102c7565b61037290845f5260205f20601f850160051c81019160208610610378575b601f0160051c0190610a17565b5f610216565b9091508190610365565b634e487b7160e01b5f52604160045260245ffd5b90601f19831691845f52815f20925f5b8181106103e55750916001939185600298979694106103cd575b505050811b0190556101ee565b01515f1960f88460031b161c191690555f80806103c0565b929360206001819287860151815501950193016103a6565b61042790845f5260205f20601f850160051c8101916020861061037857601f0160051c0190610a17565b5f6101b7565b90601f19831691855f52815f20925f5b8181106104785750908460019594939210610460575b505050811b01825561018d565b01515f1960f88460031b161c191690555f8080610453565b9293602060018192878601518155019501930161043d565b6104ba90855f5260205f20601f850160051c8101916020861061037857601f0160051c0190610a17565b5f61015a565b634e487b7160e01b5f52603260045260245ffd5b5f80fd5b346104d45760203660031901126104d4576104f1610911565b335f52600260205260ff60405f20541680156105b1575b15610552576001600160a01b03165f81815260016020526040902061052c90610a7c565b7f024a98cfcba83f5fdd9b22d0121438eafe70231fa38799c8e7244049116e93e35f80a2005b60405162461bcd60e51b815260206004820152603160248201527f4b756e2061646d696e20656c6c65722065696572206b616e207574666f657265604482015270103232b73732903430b7323634b733b2b760791b6064820152608490fd5b505f546001600160a01b03163314610508565b346104d4575f3660031901126104d4575f546040516001600160a01b039091168152602090f35b346104d45760203660031901126104d4576001600160a01b0361060c610911565b16803314801561079e575b1561074d575f52600160205260405f2080549067ffffffffffffffff8211610382576040519161064d60208260051b0184610967565b8083526020830180925f5260205f205f915b83831061070157848660405191829160208301906020845251809152604083019060408160051b85010192915f905b82821061069d57505050500390f35b919360019193955060206106f18192603f198a820301865288519060406106e06106d08451606085526060850190610927565b8685015184820388860152610927565b920151906040818403910152610927565b960192019201859493919261068e565b600360206001926040516107148161094b565b61071d86610aed565b815261072a858701610aed565b8382015261073a60028701610aed565b604082015281520192019201919061065f565b60405162461bcd60e51b815260206004820152602360248201527f496e67656e2074696c67616e672074696c2064656e6e6520686973746f72696b60448201526235b2b760e91b6064820152608490fd5b50335f52600260205260ff60405f205416610617565b346104d4575f3660031901126104d457335f5260016020526107d860405f20610a7c565b337f024a98cfcba83f5fdd9b22d0121438eafe70231fa38799c8e7244049116e93e35f80a2005b346104d45760403660031901126104d457610818610911565b602435908115158092036104d4575f546001600160a01b031633036108855760207f235bc17e7930760029e9f4d860a2a8089976de5b381cf8380fc11c1d88a111339160018060a01b031692835f526002825260405f2060ff1981541660ff8316179055604051908152a2005b60405162461bcd60e51b815260206004820152602560248201527f4b756e2065696572206b616e207574666f6572652064656e6e652068616e646c60448201526434b733b2b760d91b6064820152608490fd5b346104d45760203660031901126104d4576020906001600160a01b036108fc610911565b165f526002825260ff60405f20541615158152f35b600435906001600160a01b03821682036104d457565b805180835260209291819084018484015e5f828201840152601f01601f1916010190565b6060810190811067ffffffffffffffff82111761038257604052565b90601f8019910116810190811067ffffffffffffffff82111761038257604052565b81601f820112156104d45780359067ffffffffffffffff821161038257604051926109be601f8401601f191660200185610967565b828452602083830101116104d457815f926020809301838601378301015290565b90600182811c92168015610a0d575b60208310146109f957565b634e487b7160e01b5f52602260045260245ffd5b91607f16916109ee565b818110610a22575050565b5f8155600101610a17565b610a3781546109df565b9081610a41575050565b81601f5f9311600114610a535750555b565b81835260208320610a6f91601f0160051c810190600101610a17565b8082528160208120915555565b8054905f815581610a8b575050565b81600302916003830403610ad9575f5260205f20908101905b818110610aaf575050565b80610abb600392610a2d565b610ac760018201610a2d565b610ad360028201610a2d565b01610aa4565b634e487b7160e01b5f52601160045260245ffd5b9060405191825f825492610b00846109df565b8084529360018116908115610b695750600114610b25575b50610a5192500383610967565b90505f9291925260205f20905f915b818310610b4d575050906020610a51928201015f610b18565b6020919350806001915483858901015201910190918492610b34565b905060209250610a5194915060ff191682840152151560051b8201015f610b1856fea2646970667358221220b7cfff73a7a6397e405228a6503c8007b2de33e69e85ce7066359519913bc6d964736f6c634300081c0033",
    "sourcePath": "c:/Users/eikre/Documents/CV/smart-kontrakt.sol",
    "compiler": {
        "name": "solc",
        "version": "0.8.28+commit.7893614a"
    },
    "functionHashes": {
        "addWorkHistory(string,string,string)": "c430c2a6",
        "deleteMyWorkHistory()": "5a5d4465",
        "deleteUserWorkHistory(address)": "b97dfe99",
        "getWorkHistory(address)": "75913ebe",
        "isAdmin(address)": "24d7806c",
        "owner()": "8da5cb5b",
        "setAdmin(address,bool)": "4b0bddd2"
    },
    "gasEstimates": {
        "creation": {
            "codeDepositCost": "601800",
            "executionCost": "49170",
            "totalCost": "650970"
        },
        "external": {
            "addWorkHistory(string,string,string)": "infinite",
            "deleteMyWorkHistory()": "infinite",
            "deleteUserWorkHistory(address)": "infinite",
            "getWorkHistory(address)": "infinite",
            "isAdmin(address)": "2410",
            "owner()": "2367",
            "setAdmin(address,bool)": "28126"
        }
    }
}